{
  "contractName": "Counter",
  "abi": [
    {
      "anonymous": false,
      "inputs": [
        {
          "indexed": false,
          "internalType": "address",
          "name": "from",
          "type": "address"
        },
        {
          "indexed": false,
          "internalType": "uint256",
          "name": "by",
          "type": "uint256"
        }
      ],
      "name": "Incremented",
      "type": "event"
    },
    {
      "inputs": [
        {
          "internalType": "uint256",
          "name": "value",
          "type": "uint256"
        }
      ],
      "name": "increment",
      "outputs": [],
      "stateMutability": "nonpayable",
      "type": "function"
    }
  ],
  "bytecode": "0x6080604052348015600f57600080fd5b5060f58061001e6000396000f3fe6080604052348015600f57600080fd5b506004361060285760003560e01c80637cf5dab014602d575b600080fd5b605660048036036020811015604157600080fd5b81019080803590602001909291905050506058565b005b8060008082825401925050819055507f38ac789ed44572701765277c4d0970f2db1c1a571ed39e84358095ae4eaa54203382604051808373ffffffffffffffffffffffffffffffffffffffff1681526020018281526020019250505060405180910390a15056fea26469706673582212204a8c5fee0c2807753be38c05a847f6fedc9f053bc3241c55e7f3efdded8d601664736f6c634300060c0033",
  "immutableReferences": {},
  "source": "pragma solidity ^0.6.0;\n\n/**\n * @dev Counter contract for demo purposes\n *\n */\ncontract Counter {\n    uint256 counter;\n\n    event Incremented(address from, uint256 by);\n\n    /**\n    * @dev increment counter of `value`\n    */\n    function increment(uint256 value) public {\n        counter += value;\n        emit Incremented(msg.sender, value);\n    }\n}\n",
  "sourcePath": "/home/ggarrido/workspace/quorum-dev-quickstart/files/orchestrate/smart-contracts/Counter.sol",
  "compiler": {
    "name": "solc",
    "version": "0.6.12+commit.27d51765.Emscripten.clang"
  },
  "schemaVersion": "3.2.5",
  "updatedAt": "2021-01-22T10:27:43.265Z",
  "devdoc": {
    "details": "Counter contract for demo purposes",
    "kind": "dev",
    "methods": {
      "increment(uint256)": {
        "details": "increment counter of `value`"
      }
    },
    "version": 1
  },
  "userdoc": {
    "kind": "user",
    "methods": {},
    "version": 1
  }
}