{
  "abi": [
    {
      "inputs": [
        {
          "internalType": "uint256",
          "name": "initVal",
          "type": "uint256"
        }
      ],
      "stateMutability": "nonpayable",
      "type": "constructor"
    },
    {
      "inputs": [],
      "name": "get",
      "outputs": [
        {
          "internalType": "uint256",
          "name": "retVal",
          "type": "uint256"
        }
      ],
      "stateMutability": "view",
      "type": "function"
    },
    {
      "inputs": [
        {
          "internalType": "uint256",
          "name": "x",
          "type": "uint256"
        }
      ],
      "name": "set",
      "outputs": [],
      "stateMutability": "nonpayable",
      "type": "function"
    },
    {
      "inputs": [],
      "name": "storedData",
      "outputs": [
        {
          "internalType": "uint256",
          "name": "",
          "type": "uint256"
        }
      ],
      "stateMutability": "view",
      "type": "function"
    }
  ],
  "devdoc": {
    "kind": "dev",
    "methods": {},
    "version": 1
  },
  "evm": {
    "assembly": "    /* \"SimpleStorage.sol\":25:283  contract SimpleStorage {... */\n  mstore(0x40, 0x80)\n    /* \"SimpleStorage.sol\":79:143  constructor(uint initVal) public {... */\n  callvalue\n  dup1\n  iszero\n  tag_1\n  jumpi\n  0x00\n  dup1\n  revert\ntag_1:\n  pop\n  mload(0x40)\n  sub(codesize, bytecodeSize)\n  dup1\n  bytecodeSize\n  dup4\n  codecopy\n  dup2\n  dup2\n  add\n  0x40\n  mstore\n  0x20\n  dup2\n  lt\n  iszero\n  tag_2\n  jumpi\n  0x00\n  dup1\n  revert\ntag_2:\n  dup2\n  add\n  swap1\n  dup1\n  dup1\n  mload\n  swap1\n  0x20\n  add\n  swap1\n  swap3\n  swap2\n  swap1\n  pop\n  pop\n  pop\n    /* \"SimpleStorage.sol\":131:138  initVal */\n  dup1\n    /* \"SimpleStorage.sol\":118:128  storedData */\n  0x00\n    /* \"SimpleStorage.sol\":118:138  storedData = initVal */\n  dup2\n  swap1\n  sstore\n  pop\n    /* \"SimpleStorage.sol\":79:143  constructor(uint initVal) public {... */\n  pop\n    /* \"SimpleStorage.sol\":25:283  contract SimpleStorage {... */\n  dataSize(sub_0)\n  dup1\n  dataOffset(sub_0)\n  0x00\n  codecopy\n  0x00\n  return\nstop\n\nsub_0: assembly {\n        /* \"SimpleStorage.sol\":25:283  contract SimpleStorage {... */\n      mstore(0x40, 0x80)\n      callvalue\n      dup1\n      iszero\n      tag_1\n      jumpi\n      0x00\n      dup1\n      revert\n    tag_1:\n      pop\n      jumpi(tag_2, lt(calldatasize, 0x04))\n      shr(0xe0, calldataload(0x00))\n      dup1\n      0x2a1afcd9\n      eq\n      tag_3\n      jumpi\n      dup1\n      0x60fe47b1\n      eq\n      tag_4\n      jumpi\n      dup1\n      0x6d4ce63c\n      eq\n      tag_5\n      jumpi\n    tag_2:\n      0x00\n      dup1\n      revert\n        /* \"SimpleStorage.sol\":52:74  uint public storedData */\n    tag_3:\n      tag_6\n      tag_7\n      jump\t// in\n    tag_6:\n      mload(0x40)\n      dup1\n      dup3\n      dup2\n      mstore\n      0x20\n      add\n      swap2\n      pop\n      pop\n      mload(0x40)\n      dup1\n      swap2\n      sub\n      swap1\n      return\n        /* \"SimpleStorage.sol\":147:200  function set(uint x) public {... */\n    tag_4:\n      tag_8\n      0x04\n      dup1\n      calldatasize\n      sub\n      0x20\n      dup2\n      lt\n      iszero\n      tag_9\n      jumpi\n      0x00\n      dup1\n      revert\n    tag_9:\n      dup2\n      add\n      swap1\n      dup1\n      dup1\n      calldataload\n      swap1\n      0x20\n      add\n      swap1\n      swap3\n      swap2\n      swap1\n      pop\n      pop\n      pop\n      tag_10\n      jump\t// in\n    tag_8:\n      stop\n        /* \"SimpleStorage.sol\":204:281  function get() view public returns (uint retVal) {... */\n    tag_5:\n      tag_11\n      tag_12\n      jump\t// in\n    tag_11:\n      mload(0x40)\n      dup1\n      dup3\n      dup2\n      mstore\n      0x20\n      add\n      swap2\n      pop\n      pop\n      mload(0x40)\n      dup1\n      swap2\n      sub\n      swap1\n      return\n        /* \"SimpleStorage.sol\":52:74  uint public storedData */\n    tag_7:\n      sload(0x00)\n      dup2\n      jump\t// out\n        /* \"SimpleStorage.sol\":147:200  function set(uint x) public {... */\n    tag_10:\n        /* \"SimpleStorage.sol\":194:195  x */\n      dup1\n        /* \"SimpleStorage.sol\":181:191  storedData */\n      0x00\n        /* \"SimpleStorage.sol\":181:195  storedData = x */\n      dup2\n      swap1\n      sstore\n      pop\n        /* \"SimpleStorage.sol\":147:200  function set(uint x) public {... */\n      pop\n      jump\t// out\n        /* \"SimpleStorage.sol\":204:281  function get() view public returns (uint retVal) {... */\n    tag_12:\n        /* \"SimpleStorage.sol\":240:251  uint retVal */\n      0x00\n        /* \"SimpleStorage.sol\":266:276  storedData */\n      dup1\n      sload\n        /* \"SimpleStorage.sol\":259:276  return storedData */\n      swap1\n      pop\n        /* \"SimpleStorage.sol\":204:281  function get() view public returns (uint retVal) {... */\n      swap1\n      jump\t// out\n\n    auxdata: 0xa2646970667358221220e6966e446bd0af8e6af40eb0d8f323dd02f771ba1f11ae05c65d1624ffb3c58264736f6c63430007060033\n}\n",
    "bytecode": {
      "linkReferences": {},
      "object": "608060405234801561001057600080fd5b5060405161014d38038061014d8339818101604052602081101561003357600080fd5b8101908080519060200190929190505050806000819055505060f38061005a6000396000f3fe6080604052348015600f57600080fd5b5060043610603c5760003560e01c80632a1afcd914604157806360fe47b114605d5780636d4ce63c146088575b600080fd5b604760a4565b6040518082815260200191505060405180910390f35b608660048036036020811015607157600080fd5b810190808035906020019092919050505060aa565b005b608e60b4565b6040518082815260200191505060405180910390f35b60005481565b8060008190555050565b6000805490509056fea2646970667358221220e6966e446bd0af8e6af40eb0d8f323dd02f771ba1f11ae05c65d1624ffb3c58264736f6c63430007060033",
      "opcodes": "PUSH1 0x80 PUSH1 0x40 MSTORE CALLVALUE DUP1 ISZERO PUSH2 0x10 JUMPI PUSH1 0x0 DUP1 REVERT JUMPDEST POP PUSH1 0x40 MLOAD PUSH2 0x14D CODESIZE SUB DUP1 PUSH2 0x14D DUP4 CODECOPY DUP2 DUP2 ADD PUSH1 0x40 MSTORE PUSH1 0x20 DUP2 LT ISZERO PUSH2 0x33 JUMPI PUSH1 0x0 DUP1 REVERT JUMPDEST DUP2 ADD SWAP1 DUP1 DUP1 MLOAD SWAP1 PUSH1 0x20 ADD SWAP1 SWAP3 SWAP2 SWAP1 POP POP POP DUP1 PUSH1 0x0 DUP2 SWAP1 SSTORE POP POP PUSH1 0xF3 DUP1 PUSH2 0x5A PUSH1 0x0 CODECOPY PUSH1 0x0 RETURN INVALID PUSH1 0x80 PUSH1 0x40 MSTORE CALLVALUE DUP1 ISZERO PUSH1 0xF JUMPI PUSH1 0x0 DUP1 REVERT JUMPDEST POP PUSH1 0x4 CALLDATASIZE LT PUSH1 0x3C JUMPI PUSH1 0x0 CALLDATALOAD PUSH1 0xE0 SHR DUP1 PUSH4 0x2A1AFCD9 EQ PUSH1 0x41 JUMPI DUP1 PUSH4 0x60FE47B1 EQ PUSH1 0x5D JUMPI DUP1 PUSH4 0x6D4CE63C EQ PUSH1 0x88 JUMPI JUMPDEST PUSH1 0x0 DUP1 REVERT JUMPDEST PUSH1 0x47 PUSH1 0xA4 JUMP JUMPDEST PUSH1 0x40 MLOAD DUP1 DUP3 DUP2 MSTORE PUSH1 0x20 ADD SWAP2 POP POP PUSH1 0x40 MLOAD DUP1 SWAP2 SUB SWAP1 RETURN JUMPDEST PUSH1 0x86 PUSH1 0x4 DUP1 CALLDATASIZE SUB PUSH1 0x20 DUP2 LT ISZERO PUSH1 0x71 JUMPI PUSH1 0x0 DUP1 REVERT JUMPDEST DUP2 ADD SWAP1 DUP1 DUP1 CALLDATALOAD SWAP1 PUSH1 0x20 ADD SWAP1 SWAP3 SWAP2 SWAP1 POP POP POP PUSH1 0xAA JUMP JUMPDEST STOP JUMPDEST PUSH1 0x8E PUSH1 0xB4 JUMP JUMPDEST PUSH1 0x40 MLOAD DUP1 DUP3 DUP2 MSTORE PUSH1 0x20 ADD SWAP2 POP POP PUSH1 0x40 MLOAD DUP1 SWAP2 SUB SWAP1 RETURN JUMPDEST PUSH1 0x0 SLOAD DUP2 JUMP JUMPDEST DUP1 PUSH1 0x0 DUP2 SWAP1 SSTORE POP POP JUMP JUMPDEST PUSH1 0x0 DUP1 SLOAD SWAP1 POP SWAP1 JUMP INVALID LOG2 PUSH5 0x6970667358 0x22 SLT KECCAK256 0xE6 SWAP7 PUSH15 0x446BD0AF8E6AF40EB0D8F323DD02F7 PUSH18 0xBA1F11AE05C65D1624FFB3C58264736F6C63 NUMBER STOP SMOD MOD STOP CALLER "
    },
    "gasEstimates": {
      "creation": {
        "codeDepositCost": "48600",
        "executionCost": "infinite",
        "totalCost": "infinite"
      },
      "external": {
        "get()": "1035",
        "set(uint256)": "20242",
        "storedData()": "983"
      }
    },
    "methodIdentifiers": {
      "get()": "6d4ce63c",
      "set(uint256)": "60fe47b1",
      "storedData()": "2a1afcd9"
    }
  },
  "storageLayout": {
    "storage": [
      {
        "astId": 3,
        "contract": "SimpleStorage.sol:SimpleStorage",
        "label": "storedData",
        "offset": 0,
        "slot": "0",
        "type": "t_uint256"
      }
    ],
    "types": {
      "t_uint256": {
        "encoding": "inplace",
        "label": "uint256",
        "numberOfBytes": "32"
      }
    }
  },
  "userdoc": {
    "kind": "user",
    "methods": {},
    "version": 1
  }
}